:0400000009EF16F0FE
:08000800046ED8CF05F0E0CF33
:1000100006F00001E9CF0CF0EACF07F0E1CF08F0DD
:10002000E2CF09F0D9CF0AF0DACF0BF0F3CF12F01C
:10003000F4CF13F0FACF14F0F5CF15F0F6CF16F099
:10004000F7CF17F000C00EF001C00FF002C010F0A3
:1000500003C011F09DA030EF00F09EB089EF02F0D8
:100060000EC000F00FC001F010C002F011C003F08C
:100070000CC0E9FF07C0EAFF078E08C0E1FF09C016
:10008000E2FF0AC0D9FF0BC0DAFF12C0F3FF13C0B2
:10009000F4FF14C0FAFF15C0F5FF16C0F6FF17C035
:1000A000F7FF045006C0E0FF05C0D8FF1000F76A54
:1000B000BE0FF66E000EF7220900F5501200000088
:1000C00000000000005F00000003000300143E1465
:1000D0003E14242A7F2A124333086661364955228A
:1000E000500005030000001C2241000041221C00BA
:1000F00014083E081408083E0808005030000008A4
:1001000008080808006060000020100804023E5142
:1001100049453E0004027F0042615149462241495F
:1001200049361814127F1027454545393E4949493B
:100130003201017109073649494936264949493E84
:100140000036360000005636000008142241001424
:1001500014141414004122140802015109063E41EE
:1001600059555E7E0909097E7F494949363E41411C
:1001700041227F4141413E7F494949417F09090967
:10018000013E4141493A7F0808087F00417F410014
:10019000304040403F7F081422417F404040407F34
:1001A000020C027F7F0204087F3E4141413E7F09ED
:1001B0000909061E2121215E7F0909097600F76AD7
:1001C000CE0FF66E010EF7220900F55012002649F7
:1001D00049493201017F01013F4040403F1F20401B
:1001E000201F7F2010207F41221C22410708700819
:1001F000076151494543007F410000020408102077
:100200000000417F000402010204404040404000E1
:100210000102040020545454787F44444438384444
:10022000444444384444447F385454541804047EAD
:100230000505085454543C7F0804047800447D406C
:10024000002040443D007F1028440000417F4000D2
:100250007C047804787C0804047838444444387C6E
:1002600014141408081414147C007C080404485462
:1002700054542004043F44443C4040207C1C204013
:10028000201C3C4030403C44281028440C50505026
:100290003C4464544C44000836414100007F000057
:1002A00041413608000201020402F76ABA0FF66EF5
:1002B000020EF7220900F5501200808386898C8F88
:1002C0009295989B9EA1A4A7AAADB0B2B5B8BBBDAC
:1002D000C0C3C5C8CACCCFD1D3D5D7D9DBDDDFE108
:1002E000E3E4E6E8E9EBECEEEFF0F2F3F4F5F6F731
:1002F000F8F9FAFBFBFCFDFDFEFEFEFFFFFFFEFE34
:10030000FEFDFDFCFBFBFAF9F8F7F6F5F4F3F2F06D
:10031000EFEEECEBE9E8E6E4E3E1DFDDDBD9D7D5AE
:10032000D3D1CFCCCAC8C5C3C0BDBBB8B5B2B0ADC0
:10033000AAA7A4A19E9B9895928F8C898683807D85
:100340007A7774716E6B6865625F5C595653504E74
:100350004B484643413F3C3A38363432302E2C2A03
:100360002927252422211F1E1D1B1A1918171615AF
:1003700014131211100F0F0E0D0D0C0C0B0B0B0A9A
:100380000A0A0A0A0A0A0B0B0B0C0C0D0D0E0F0FB2
:10039000101112131415161718191A1B1D1E1F21E0
:1003A00022242527292A2C2E30323436383A3C3F55
:1003B000414346484B4E505356590201166B176B3A
:1003C000010E186FDA6AD96A020E1B6F0E0E1A6FD1
:1003D000020EEA6E120EE96E1BC2E2FF1AC2E1FFC4
:1003E00018C219F2D890E550EE02F3501623F450DB
:1003F0001723192FF7D716C2DEFF17C216F2176B95
:10040000D8B0172B1A2BD8B41B2B182B1851050852
:10041000DFE100011200D8B204D0020EEA6E140E21
:10042000E96E006A016A026A036A0201146B156BC5
:10043000166B176B13511211111110112CE0200EB5
:10044000186FD8900C370D370E370F371437153714
:10045000163717371351175D08E11251165D05E184
:100460001151155D02E11051145D0FE31051145F3D
:100470001151D8A0113D155F1251D8A0123D165F41
:100480001351D8A0133D175FD880003601360236CD
:100490000336182FD6D714C2EFFF15C2ECFF16C2D1
:1004A000ECFF17C2ECFF00011200020108B102D0FC
:1004B0008B9001D08B80949008B302D08B9201D0A6
:1004C0008B82949208B502D08B9401D08B84949443
:1004D00008B702D08B9801D08B88949808B902D0C5
:1004E0008B9A01D08B8A949A08BB02D08B9C01D046
:1004F0008B8C949C08BD02D08B9E01D08B8E949ED9
:1005000008BF02D0899A01D0898A929A00015EEFD1
:1005100003F07E0ECF6E8E0ECE6E0201066B30C0E3
:1005200007F22250FC0FD8B0C5D0040F000165EFD0
:1005300003F0036A02010751360FE96E000E032033
:10054000EA6EEFCF06F2B6D0000130507F0802E32A
:10055000345001D033500201066FACD030507F08C8
:100560003BE33350345C0201086F3030036E2F30B0
:10057000026E03320232033202320332023203329B
:1005800002320332023203320232010E031602C07B
:100590000CF203C00DF2116B106B0F6B08C20EF260
:1005A000156B146B03C013F202C012F2000105DFD9
:1005B00003C00BF202C00AF201C009F200C008F247
:1005C00001C000F002C001F003C002F0005033246B
:1005D0000201066F40D000013350345C0201086F05
:1005E000000E2F5C0C6F800E30580D6F0D31036EB6
:1005F0000C31026E03320232033202320332023213
:10060000033202320332023203320232010E031687
:1006100002C00CF203C00DF2116B106B0F6B08C21D
:100620000EF2156B146B03C013F202C012F200013C
:10063000C4DE03C00BF202C00AF201C009F200C01E
:1006400008F201C000F002C001F003C002F0005047
:10065000345C0201066F2ED03350345C0201086F07
:10066000116B106B0F6B0E6F156B146B30C013F2A8
:100670002FC012F20001A1DE03C00BF202C00AF289
:1006800001C009F200C008F2D89203C00FF202C004
:100690000EF201C00DF200C00CF20201136B126BDE
:1006A000116910690001B7DE0050345C0201066F69
:1006B00001D0020106C208F20001F7D631502F2600
:1006C000325030229E9030EF00F0E824F76AF7367F
:1006D000E50FF66E060EF7220A00F550FA6E0800D6
:1006E000F550F96E32054A055C0558064F6E646197
:1006F0003A2053656E6F6964616C00004F6E6461EF
:100700003A20437561647261646100004F6E6461F8
:100710003A20547269616E67756C617200004F6EA9
:1007200064613A20442E2053696572726100463A32
:100730002025332E3166487A0000413A2025312E9B
:1007400031665600413A2025312E31662056000090
:10075000463A2025332E316620487A005670703A8A
:100760002025312E3166205600005670703A202523
:10077000312E316620560000010EEA6E380EE96E09
:10078000EF500EE00F0E016E006A002EFED7012E14
:10079000FBD78F0E006E002EFED70000EF2EF2D793
:1007A0001200000E956E93988A980201045303E09C
:1007B00093928A8202D093908A80030E006E002E5C
:1007C000FED700D0956A05C28CFF030E006E002E86
:1007D000FED700D0939A8A8A030E006E002EFED7B1
:1007E00000D0939A8A9A93908A9093928A92000169
:1007F00012000101EC6BEC51070841E393948A94D9
:100800000201046B400E056F0001CBDF010E0201F7
:10081000046F400E056F0001C4DF0101EC51B809FF
:10082000EE6F0201046B056F0001BBDF0101EC51AB
:10083000B809EE6F010E0201046FEEC105F200016E
:10084000B0DF93948A840101ED6BED513F0815E30D
:10085000EB51FF0DF3CF05F20201046B0001A1DFA4
:100860000101EB51FF0DF3CF05F2010E0201046F00
:10087000000197DF0101ED2BE8D7EC2BBCD700017D
:10088000120093968A86939A8A9A93908A9093926A
:100890008A9293948A940201046BC00E056F000142
:1008A00080DF010E0201046FC00E056F000179DFC9
:1008B0000201046B400E056F000173DF010E02019F
:1008C000046F400E056F00016CDF0201046BB80E6F
:1008D000056F000166DF010E0201046FB80E056F9F
:1008E00000015FDF0101382D0FD00201046B3F0EC4
:1008F000056F000156DF010E0201046F3F0E056F08
:1009000000014FDF0ED001010201046B3E0E056FA6
:10091000000147DF010E0201046F3E0E056F00016A
:1009200040DF0101EB6B000164DF4BEF16F00101CA
:10093000F851B608F86F036AF9C1FCF1F98FD89045
:10094000F933FA33FB330332023201320032F82F2B
:10095000F6D7FCAF0BD0001E011E021E031E002A9C
:10096000D8B4012AD8B4022AD8B4032A000112004C
:10097000B60E006E036A026A016A010151515211FA
:100980005311541102E1006A0DD0D89001BE09D074
:100990005137523753375437033602360136002E5B
:1009A000F4D7019E000182EF07F00101F851D8B49D
:1009B0007FD0006EFC51D8B47BD0002605E3810EB9
:1009C0000026D8B075D004D07F0E005E71E370E0D1
:1009D000F9C100F2FD510201001B0101F98FFD8FE9
:1009E000FB51FF03F4CF02F2FA51FE03F4CF03F000
:1009F000F3CF01F2FF03F35002010227F450012369
:100A0000000E03220101FB51FE03F35002010227F5
:100A1000F4500123000E026A032202220101F9515F
:100A2000FF03F35002010127F4500322000E0222BB
:100A30000101F951FE03F3500326F4500222000E87
:100A4000016A0122FB51FD03F35002010127F4501A
:100A50000322000E022201220101FA51FD03F3508C
:100A60000326F4500222000E0122F951FD03F35037
:100A70000226F4500122002A01BE06D002010137ED
:100A80000336023601360006000E020101AF0AD01D
:100A9000032A02220122015005E1025003E1035022
:100AA00001E1002A00BF018E00AF019E06D00101C6
:100AB000006A016A026A036A020100011200010170
:100AC0005151D8B4A5D05D6F5551D8B4A1D05D5F58
:100AD00005E37F0E5D27D8B09BD006D0810E5D5F09
:100AE000D8A096D0D8B494D05DC100F0016A026A53
:100AF000036A5C6B52C15BF15B8F53C15AF154C105
:100B000059F1190E5D6F5851595F0DE2010E5A5F90
:100B10000AE25B5F08E25C5F06E25C2B5B2B5A2B10
:100B20005851592728D057515A5F12E2010E5B5F86
:100B30000FE25C5F0DE25C2B5B2B57515A2758513B
:100B4000592719E35A2B17E15B2B15E15C2B13D0C6
:100B5000565180095B5F0EE2010E5C5F0BE25C2B7D
:100B6000565180095B2757515A27E9E35B2BE7E190
:100B70005C2BE5D703805D2F01D00BD0D89059377F
:100B80005A375B375C37D8900336023601365E370A
:100B9000BAD75EA106D0D8900132023203325E335A
:100BA00002D0000635E05EBF1ED0D89059375A37C4
:100BB0005B375C375851595F07E2010E5A5F04E218
:100BC0005B5F02E25C5F1AE357515A5F05E2010E78
:100BD0005B5F02E25C5F12E3565180095B5F03E2F8
:100BE000010E5C5F0BE3032A09E1022A07E1012AF7
:100BF00005E1002A0DE001320232033252C15DF1FB
:100C000056515D1B5DAF02D0018E06D0019E04D00F
:100C1000006A016A026A036A000112008E0E006E09
:100C200001014D51005E4EC102F04FC101F0028E34
:100C3000005209E0D890025202E1015204E002326F
:100C40000132002EF7D74EAF05D0011E021E012A39
:100C5000D8B4022A00011200800ED8A202D00101ED
:100C6000521B0101576B586B4EC156F15251561B26
:100C70004D51D8B4DFD0556F006E5151D8B4E3D088
:100C8000555FD8B483D03EE352C15BF15B8F53C153
:100C90005AF154C159F1586BD8905B335A335933D8
:100CA0005833552FF8D756AF03D05781E0D057911E
:100CB00055915789010EEA6E500EE96EEBD05799A7
:100CC00056BF0AD055A113D05B335A33593358332A
:100CD000002AD8B4C7D00BD05BBF0CD0D8905837FF
:100CE00059375A375B370006D8B4BCD0F5D7578D83
:100CF0006DD0579D4EC156F14EAF02D05B8FABD039
:100D00005B9FA9D051C155F151C100F04D51555FC4
:100D10004EC15BF15B8F4FC15AF150C159F1586B15
:100D2000D8905B335A3359335833552FF8D756AFD1
:100D300003D057839CD057935591578B010EEA6E81
:100D4000540EE96EA7D0579B56BF0AD055A113D0B9
:100D50005B335A3359335833002AD8B483D00BD07D
:100D60005BBF0CD0D890583759375A375B370006DD
:100D7000D8B478D0F5D7578F29D0579F52C156F1A4
:100D800052AF02D05B8F67D05B9F65D052C15BF1E1
:100D90005B8F53C15AF154C159F156AF04D05B9FD8
:100DA000578565D05795586B5591010EEA6E500ED8
:100DB000E96E70D056BF1CD04EC156F155A106D079
:100DC0005B335A3359335833002A4CE058AF0BD0B9
:100DD000592B09E15A2B07E15B2B05E15B335A33B1
:100DE0005933002A3FE057BD84D757BFC6D71CD020
:100DF000800E5B1B5BAF04D03AD052C156F10AD0D3
:100E00004EC156F15B5306E15A5304E1595302E1D6
:100E1000006A21D05BBF08D0D890583759375A376D
:100E20005B37002EF7D71ED056AF02D05B8F13D0A2
:100E30005B9F11D051C100F052C15BF153C15AF117
:100E400054C159F108D04DC100F04EC15BF14FC102
:100E50005AF150C159F15BC101F05AC102F059C1B8
:100E600003F034D0006A016A026A036A2FD0586B1B
:100E7000591F5A1F5B1F581F582B05E1592B03E1BF
:100E80005A2B01E15B2B57B112D757B354D757B543
:100E900089D7B3D7EF50592705E35A2B03E15B2BD2
:100EA000D8B45581ED52EF505A2703E35B2BD8B4E9
:100EB0005581ED52EF50EFBE01D0800A5B27D8B0CC
:100EC000558157B9FCD657BB3ED774D700011200E5
:100ED00026C0FBF125C0FAF124C0F9F123C0F8F1D6
:100EE00026DD03C050F102C04FF101C04EF100C039
:100EF0004DF103C054F102C053F101C052F100C0E2
:100F000051F136D503C0FBF102C0FAF101C0F9F18D
:100F100000C0F8F10101FF6BFE6BFD6B870EFC6FEB
:100F2000000143DD03C050F102C04FF101C04EF19A
:100F300000C04DF103C0FBF102C0FAF101C0F9F1AC
:100F400000C0F8F10101FF6BFE6BFD6B8F0EFC6FB3
:100F500000012BDD03C050F102C04FF101C04EF182
:100F600000C04DF103C054F102C053F101C052F171
:100F700000C051F10101586B400E576F1C0E566FA7
:100F80008E0E556F00019BDD03C050F102C04FF182
:100F900001C04EF100C04DF141DE02C032F001C08F
:100FA00031F001013B6B3A6B200E396F810E386FC7
:100FB0002250FC0FD8B093D1040F000171EF09F05B
:100FC000330E01013F6F3E6F130E3D6F7F0E3C6F7E
:100FD000D8923FC150F13EC14FF13DC14EF13CC1ED
:100FE0004DF12EC054F12DC053F12CC052F12BC045
:100FF00051F1000131DE03C043F102C042F101C0F2
:1010000041F100C040F13FC154F13EC153F13DC137
:1010100052F13CC151F13BC158F13AC157F139C1CC
:1010200056F138C155F14BDD03C050F102C04FF10C
:1010300001C04EF100C04DF103C0FBF102C0FAF156
:1010400001C0F9F100C0F8F10101FF6BFE6B7F0EEA
:10105000FD6F860EFC6F0001A8DC03C050F102C0DA
:101060004FF101C04EF100C04DF1D8DD01C044F197
:1010700043C154F142C153F141C152F140C151F158
:101080003BC158F13AC157F139C156F138C155F158
:1010900016DD03C050F102C04FF101C04EF100C097
:1010A0004DF103C0FBF102C0FAF101C0F9F100C03B
:1010B000F8F10101FF6BFE6B7F0EFD6F860EFC6F7A
:1010C000000173DC03C050F102C04FF101C04EF1CA
:1010D00000C04DF1A3DD01C045F101014B6B4A6B2E
:1010E000476B466B4753D8A485D046510F08D8A00C
:1010F00081D0496B486B495379E148510F0876E339
:1011000046354D6F47354E6F4D374E374D374E375D
:101110004D374E37F00E4D1748514D25016E495150
:101120004E21036E0150000155EC01F0E8CF4CF167
:10113000360E01014A25E96E000E4B21EA6E44513C
:10114000455D526B516B506B4F6FEACF54F1E9CF55
:1011500053F1196AF2BE198EF29E52C111F251C1B9
:1011600010F250C10FF2E8CF0EF20201156B146BB2
:10117000136B4CC112F20001DDEC01F019BEF28ECE
:1011800054C1EAFF53C1E9FF03C052F102C051F15B
:1011900001C050F100C04FF1EACF56F1E9CF55F14F
:1011A000D892196AF2BE198EF29E03C00FF202C0E5
:1011B0000EF201C00DF200C00CF20201136B126BB3
:1011C000116B106900010BEC02F019BEF28E56C1D2
:1011D000EAFF55C1E9FF005001014425EF6E4A2B9B
:1011E000D8B44B2B482BD8B4492B85D7462BD8B431
:1011F000472B78D774D00001336A2AC054F129C034
:1012000053F128C052F127C051F13BC158F13AC106
:1012100057F139C156F138C155F151DC03C050F1D5
:1012200002C04FF101C04EF100C04DF103C0FBF10F
:1012300002C0FAF101C0F9F100C0F8F10101FF6B41
:10124000FE6B7F0EFD6F860EFC6F0001D5EC04F087
:1012500003C050F102C04FF101C04EF100C04DF18A
:10126000DDDC01C034F001013AD0336A2AC054F108
:1012700029C053F128C052F127C051F13BC158F1A8
:101280003AC157F139C156F138C155F118DC03C0E4
:1012900050F102C04FF101C04EF100C04DF103C04A
:1012A000FBF102C0FAF101C0F9F100C0F8F101014F
:1012B000FF6BFE6B7F0EFD6F860EFC6F0001D5ECA1
:1012C00004F003C050F102C04FF101C04EF100C064
:1012D0004DF1A4DC01C034F0010101D00101000195
:1012E0001200E824F76AF736FD0FF66E120EF722A9
:1012F0000A00F550FA6E0800F550F96EC00FF811AB
:101300006A126A1239C140F101013D51401B40AFE0
:1013100005D0D894D89039BFD8802FD039C140F1AA
:101320003CC141F13851415F06E040AF26D0D85072
:10133000010AD86E22D03DC141F13951415F06E02A
:1013400040AF1BD0D850010AD86E17D03EC141F132
:101350003A51415F06E040AF10D0D850010AD86E34
:101360000CD03FC141F13B51415F06E040AF05D099
:10137000D850010AD86E01D0D89000011200928096
:1013800080A0A8D1320E0101386F0001BCEC03F03F
:10139000928080A09CD12050FC0FD8B097D1040F30
:1013A000BEEF0EF0215202E0210602D0020E216EA5
:1013B0008DD1215202E0210602D0030E216E86D18A
:1013C00022522BE126C03BF125C03AF124C039F16D
:1013D00023C038F101013F6B3E6B480E3D6F850E17
:1013E0003C6F00018FDF19E3D89226C050F125C071
:1013F0004FF124C04EF123C04DF10101546B536BEA
:10140000526B7F0E516F000127DC03C026F002C033
:1014100025F001C024F000C023F0222C2CD026C0DF
:101420003BF125C03AF124C039F123C038F1010164
:101430003F6B3E6B160E3D6F860E3C6F000162DF08
:101440001AE3D89226C050F125C04FF124C04EF1C6
:1014500023C04DF10101546B536B526B7F0E516FE2
:1014600000012CEC06F003C026F002C025F001C0FC
:1014700024F000C023F0225002082CE126C03BF1EA
:1014800025C03AF124C039F123C038F101013F6B86
:101490003E6B480E3D6F860E3C6F000133DF1AE352
:1014A000D89226C050F125C04FF124C04EF123C080
:1014B0004DF10101546B536B526B7F0E516F000164
:1014C0002CEC06F003C026F002C025F001C024F089
:1014D00000C023F0225003082CE126C03BF125C0B8
:1014E0003AF124C039F123C038F101013F6B3E6B62
:1014F000160E3D6F870E3C6F000104DF1AE3D89291
:1015000026C050F125C04FF124C04EF123C04DF14B
:101510000101546B536B526B7F0E516F00012CEC29
:1015200006F003C026F002C025F001C024F000C080
:1015300023F0CEDCCBD0225230E12EC03BF12DC0C7
:101540003AF12CC039F12BC038F1330E01013F6F55
:101550003E6F130E3D6F800E3C6F0001D3DE1DE326
:10156000D8922EC050F12DC04FF12CC04EF12BC09F
:101570004DF1CD0E0101546FCC0E536F4C0E526FD6
:101580007B0E516F00012CEC06F003C02EF002C060
:101590002DF001C02CF000C02BF0222C2FD02AC03F
:1015A0003BF129C03AF128C039F127C038F10101D7
:1015B0003F6B3E6B100E3D6F810E3C6F0001A2DE53
:1015C0001DE3D8922AC050F129C04FF128C04EF136
:1015D00027C04DF1CD0E0101546FCC0E536F4C0E50
:1015E000526F7B0E516F00012CEC06F003C02AF005
:1015F00002C029F001C028F000C027F022500208E4
:1016000031E12AC03BF129C03AF128C039F127C0A5
:1016100038F1CD0E01013F6FCC0E3E6F0C0E3D6FC9
:10162000810E3C6F00016EDE1DE3D8922AC050F19E
:1016300029C04FF128C04EF127C04DF1CD0E010158
:10164000546FCC0E536F4C0E526F7B0E516F0001D6
:101650002CEC06F003C02AF002C029F001C028F0EB
:1016600000C027F02250030830E12AC03BF129C016
:101670003AF128C039F127C038F1330E01013F6F2C
:101680003E6F130E3D6F810E3C6F00013BDE1DE38C
:10169000D8922AC050F129C04FF128C04EF127C07E
:1016A0004DF1CD0E0101546FCC0E536F4C0E526FA5
:1016B0007B0E516F00012CEC06F003C02AF002C033
:1016C00029F001C028F000C027F002DC35809280AC
:1016D00080B0FDD7928280A2A6D1320E0101386F70
:1016E0000001BCEC03F0928280A29AD12050FC0F42
:1016F000D8B095D1040FCFEF0EF02150010802E3CE
:10170000212A01D0216A8BD12150020802E3212A2B
:1017100001D0216A84D122522CE101013B6B3A6B4A
:10172000200E396F820E386F26C03FF125C03EF182
:1017300024C03DF123C03CF10001E4DD1AE3D8826E
:1017400026C050F125C04FF124C04EF123C04DF109
:101750000101546B536B526B7F0E516F00012CECE7
:1017600006F003C026F002C025F001C024F000C03E
:1017700023F0222C2CD001013B6B3A6B700E396F99
:10178000820E386F26C03FF125C03EF124C03DF1E6
:1017900023C03CF10001B6DD1AE3D88226C050F127
:1017A00025C04FF124C04EF123C04DF10101546B0F
:1017B000536B526B7F0E516F00012CEC06F003C08F
:1017C00026F002C025F001C024F000C023F0225012
:1017D00002082CE101013B6B3A6B200E396F830E3E
:1017E000386F26C03FF125C03EF124C03DF123C033
:1017F0003CF1000187DD1AE3D88226C050F125C0F4
:101800004FF124C04EF123C04DF10101546B536BD5
:10181000526B7F0E516F00012CEC06F003C026F0D6
:1018200002C025F001C024F000C023F022500308BC
:101830002CE101013B6B3A6B700E396F830E386FF0
:1018400026C03FF125C03EF124C03DF123C03CF14C
:10185000000158DD1AE3D88226C050F125C04FF1AF
:1018600024C04EF123C04DF10101546B536B526BF8
:101870007F0E516F00012CEC06F003C026F002C071
:1018800025F001C024F000C023F068EC07F0C7D0B9
:1018900022522EE101013B6B3A6B396B7F0E386FA0
:1018A0002EC03FF12DC03EF12CC03DF12BC03CF1CC
:1018B000000128DD1DE3D8822EC050F12DC04FF16C
:1018C0002CC04EF12BC04DF1CD0E0101546FCC0E4A
:1018D000536F4C0E526F7B0E516F00012CEC06F0D3
:1018E00003C02EF002C02DF001C02CF000C02BF080
:1018F000222C30D0330E01013B6F3A6F530E396FFB
:10190000800E386F2AC03FF129C03EF128C03DF15A
:1019100027C03CF10001F6DC1DE3D8822AC050F15B
:1019200029C04FF128C04EF127C04DF1CD0E010165
:10193000546FCC0E536F4C0E526F7B0E516F0001E3
:101940002CEC06F003C02AF002C029F001C028F0F8
:1019500000C027F0225002082EE101013B6B3A6BD8
:10196000396B800E386F2AC03FF129C03EF128C084
:101970003DF127C03CF10001C5DC1DE3D8822AC03F
:1019800050F129C04FF128C04EF127C04DF1CD0EC6
:101990000101546FCC0E536F4C0E526F7B0E516F82
:1019A00000012CEC06F003C02AF002C029F001C0AF
:1019B00028F000C027F0225003082FE101013B6B03
:1019C0003A6B400E396F7F0E386F2AC03FF129C045
:1019D0003EF128C03DF127C03CF1000193DC1DE33E
:1019E000D8822AC050F129C04FF128C04EF127C03B
:1019F0004DF1CD0E0101546FCC0E536F4C0E526F52
:101A00007B0E516F00012CEC06F003C02AF002C0DF
:101A100029F001C028F000C027F068EC07F03580FD
:101A2000928280B2FDD7928480A494D1320E0101BB
:101A3000386F0001BCEC03F0928480A488D1205060
:101A400003E0010A12E082D1215203E1010E206E6F
:101A50000AD0212C03D0020E206E05D0215002089E
:101A600002E1030E206E216A71D121C022F02250C2
:101A7000FC0FD8B067D1040FE0EF0EF026C03BF1A9
:101A800025C03AF124C039F123C038F101013F6B80
:101A90003E6B200E3D6F820E3C6F000133DC06E38F
:101AA000266A256A200E246E820E236E01013B6B8E
:101AB0003A6B480E396F850E386F26C03FF125C04E
:101AC0003EF124C03DF123C03CF100011BDC06E3E4
:101AD000266A256A480E246E850E236E33D126C0F1
:101AE0003BF125C03AF124C039F123C038F101019E
:101AF0003F6B3E6B700E3D6F820E3C6F000102DC4F
:101B000006E3266A256A700E246E820E236E01019A
:101B10003B6B3A6B160E396F860E386F26C03FF15D
:101B200025C03EF124C03DF123C03CF1000182EC10
:101B300009F006E3266A256A160E246E860E236EC9
:101B40002AC03BF129C03AF128C039F127C038F149
:101B5000330E01013F6F3E6F530E3D6F800E3C6FA1
:101B6000000182EC09F007E3330E2A6E296E530E52
:101B7000286E800E276E01013B6B3A6B100E396F99
:101B8000810E386F2AC03FF129C03EF128C03DF1D7
:101B900027C03CF1000182EC09F006E32A6A296AB9
:101BA000100E286E810E276ECDD026C03BF125C0C9
:101BB0003AF124C039F123C038F101013F6B3E6B8B
:101BC000200E3D6F830E3C6F000182EC09F006E3AE
:101BD000266A256A200E246E830E236E01013B6B5C
:101BE0003A6B480E396F860E386F26C03FF125C01C
:101BF0003EF124C03DF123C03CF1000182EC09F02C
:101C000006E3266A256A480E246E860E236E2AC0D5
:101C10003BF129C03AF128C039F127C038F1010160
:101C20003F6B3E6B3D6B800E3C6F000182EC09F018
:101C300005E32A6A296A286A800E276ECD0E010103
:101C40003B6FCC0E3A6F0C0E396F810E386F2AC085
:101C50003FF129C03EF128C03DF127C03CF1000111
:101C600082EC09F008E3CD0E2A6ECC0E296E0C0E24
:101C7000286E810E276E66D026C03BF125C03AF152
:101C800024C039F123C038F101013F6B3E6B700E67
:101C90003D6F830E3C6F000182EC09F006E3266A7B
:101CA000256A700E246E830E236E01013B6B3A6B26
:101CB000160E396F870E386F26C03FF125C03EF1F2
:101CC00024C03DF123C03CF1000182EC09F006E3A1
:101CD000266A256A160E246E870E236E2AC03BF1F3
:101CE00029C03AF128C039F127C038F101013F6B12
:101CF0003E6B400E3D6F7F0E3C6F000182EC09F0A1
:101D000006E32A6A296A400E286E7F0E276E330E7C
:101D100001013B6F3A6F130E396F810E386F2AC085
:101D20003FF129C03EF128C03DF127C03CF1000140
:101D300082EC09F007E3330E2A6E296E130E286E2B
:101D4000810E276E68EC07F0206A216A3580928444
:101D500080B4FDD7928680A60FD0320E0101386F75
:101D60000001BCEC03F0928680A603D0206A216AB1
:101D70003580928680B6FDD763EF16F0E824F76AC7
:101D8000F736970FF66E1D0EF7220A00F550FA6E21
:101D90000800F550F96EA413B213C0133615E824E9
:101DA000F76AF736B90FF66E1D0EF7220A00F550E6
:101DB000FA6E0800F550F96EFA1608171617901803
:101DC000E824F76AF736DB0FF66E1D0EF7220A00DD
:101DD000F550FA6E0800F550F96E7C1ADE1AAA1B4F
:101DE000781C37C1EAFF36C1E9FF0101F8C1EFFFF6
:101DF000E92AD8B4EA2AEF6A362BD8B4372B000187
:101E000012000900F5520CE0F6CFEBF1F7CFECF140
:101E1000F5CFF8F1E6DFEBC1F6FFECC1F7FFF1D744
:101E20001200FF0E956E93988A880201035303E017
:101E300093928A8202D093908A80030E006E002EC5
:101E4000FED700D0939A8A8A030E006E002EFED72A
:101E500000D0956883CF04F2939A8A9A93908A90DF
:101E600093928A9204C201F00001120002010191D2
:101E70000101FD513F0805E2400EFD5F02010181B5
:101E8000010193948A94FD9FFD8D000E020101B122
:101E9000010E026F046FFDC105F20001D1EC03F0E9
:101EA000000E020101B1010E026F0101FE31006E50
:101EB000003200321F0E00160050BF0BB80902019D
:101EC000036F02C204F2056F0001D1EC03F093949A
:101ED0008A84000E020101B1010E026F036F00013E
:101EE000A0DF000E020101B1010E026F036F0001BD
:101EF00098DF01C000F20101FF2D11D0FE51070B48
:101F00000201026F010E006E0251016E04E0D890D2
:101F10000036012EFCD70050001311D00101FE51F4
:101F2000070B0201026F010E006E0251016E04E008
:101F3000D8900036012EFCD70050FF0A001793946A
:101F40008A94000E01B1010E026F046FFDC105F20B
:101F50000001D1EC03F093948A84000E020101B1D8
:101F6000010E026F046F00C205F20001D1EC03F014
:101F70001200EFC1EAFF0101EEC1E9FFEF52D8B450
:101F8000C3D0EFC1EAFFEEC1E9FFEF50520822E3F0
:101F9000EFC103F0EEC1E9FF03C0EAFF200EEF5CE2
:101FA000050DF350036AFB6F010EEA6EF60EE96E43
:101FB000FF6BFBC1FEF1050E016EF76AFB510001DC
:101FC00057EC00F00A000900F5CFEEFF012EFBD719
:101FD00030D00101EFC1EAFFEEC1E9FFEF507E080A
:101FE00022E3EFC103F0EEC1E9FF03C0EAFF530EA5
:101FF000EF5C050DF350036AFB6F010EEA6EF60EFF
:10200000E96EFF6BFBC1FEF1050E016EF76AFB5135
:102010000001DFEC00F00A000900F5CFEEFF012E11
:10202000FBD707D00101F66BF76BF86BF96BFA6B16
:102030000001EFC103F00101EE51E96E03C0EAFFB8
:10204000EF500A0A000103E0070A09E00CD0010181
:10205000F051070DF350010FED274FD000010101A2
:10206000EC6B4BD000010101F051050DF350EC2554
:102070007F0806E2EC6BF051070DF350010FED27DE
:10208000F26BF251040839E3F36BF351060831E3C4
:10209000036AF251F60FE96E010E0320EA6EEFCFEC
:1020A00000F0F351016E04E0D8900032012EFCD70D
:1020B00000A01DD0F46BF051F45D19E2F56BF05106
:1020C000F55D13E2F551EC25FB6FF351F003F3508E
:1020D000ED25F425FC6FFBC1FDF1FE6FF1C1FFF1B1
:1020E0000001C4DE0101F52BEAD7F42BE4D7F32B72
:1020F000CCD7F22BF051EC27C4D7EE2BD8B4EF2B72
:10210000EC2B000136D70101000112000900F6CFC7
:10211000ECF1F7CFEDF1F5CFF8F163DEECC1F6FFAE
:10212000EDC1F7FF0101EB2F01D002D00001EED786
:1021300000011200E9500101F06FEF51F26F1CE055
:10214000EEC1FBF1EDC1FAF1ECC1F9F1EBC1F8F12F
:10215000FF6BFE6B200EFD6F820EFC6F0001D5EC55
:1021600004F003C0EEF102C0EDF101C0ECF100C0DB
:10217000EBF10101F22FE4D7EEC1FBF1EDC1FAF171
:10218000ECC1F9F1EBC1F8F1000197EC04F003C0E8
:10219000EEF102C0EDF101C0ECF100C0EBF1010184
:1021A000EEAF0DD0F007F08BEB1FEC1FED1FEE1F15
:1021B000EB2BD8B4EC2BD8B4ED2BD8B4EE2B3B0ED4
:1021C000F76F9A0EF66FCA0EF56FF46B0A0EF26F88
:1021D000EF51D8B4F02BD882010EEA6EEB0EE96E07
:1021E000196AF2BE198EF29EEEC10FF2EDC10EF227
:1021F000ECC10DF2EBC10CF2F7C113F2F6C112F211
:10220000F5C111F2F4C110F200010BEC02F019BE9D
:10221000F28E0150005213E10101EF29F25DD8A4C2
:1022200002D000010CD0F0510DE00F0BF25D01E087
:1022300040E2F0BF3ED0F0BD05D0200E34D0200EDD
:102240000101F017F0AB0ED0F09BEF51D8A4F007CE
:102250000050F06F2D0EF86F0001C3DD0101F05149
:10226000006EF06BEF51F25D0CE10050F06F2E0E3E
:10227000F86F0001B6DD0101F051006E200EF0177D
:10228000000E300EF0AB0FD0F09BEF51D8A4F0074A
:102290000050F06F2D0EF86F0001A3DD0101F05129
:1022A000006EF06B300E002600C0F8F1000199DDE1
:1022B0000101D892196AF2BE198EF29EF7C10FF28F
:1022C000F6C10EF2F5C10DF2F4C10CF20201136B6E
:1022D000126B116B0A0E106F00010BEC02F019BEAD
:1022E000F28E03C0F7F102C0F6F101C0F5F100C0B3
:1022F000F4F10101F22F6FD700011200010E01016C
:10230000F46FF56FFA6BEB51ED5DFB6FFB51FBAFBB
:1023100003D0000ED880FB55F36BF26FEC51EE5DED
:10232000FB6FFB51FBAF03D0000ED880FB55F16B68
:10233000F06FEB51ED5D01E2F469EC51EE5D01E20D
:10234000F569F151F35D3AE303E1F051F25D36E3F3
:10235000D890F037F137F251F05D006EF351F1593A
:1023600000C0F6F1F76FF251F65DF86FF351F759CF
:10237000F96FF35303E1FA51F25D1FE3EBC1FDF195
:10238000ECC1FEF1EFC1FFF1000170DD0101F7AF1B
:1023900008D0F051F627F151F723F451EB25EB6FFC
:1023A0000AD0F851F627F951F723F451EB25EB6FDA
:1023B000F551EC25EC6FFA2BDCD735D0D890F237FD
:1023C000F337F051F25D006EF151F35900C0F6F1B0
:1023D000F76FF051F65DF86FF151F759F96FF1535E
:1023E00003E1FA51F05D1FE3EBC1FDF1ECC1FEF139
:1023F000EFC1FFF100013ADD0101F7AF08D0F25162
:10240000F627F351F723F551EC25EC6F0AD0F8517C
:10241000F627F951F723F451EB25EB6FF551EC2535
:10242000EC6FFA2BDCD700011200310E0101386F7E
:102430002E0E396F200E3A6F450E3B6F6C0E3C6FBF
:10244000650E3D6F670E3E6F690E3F6F720E406FF7
:10245000200E416F4F0E426F6E0E436F640E446F3D
:10246000610E456F466B320E476F2E0E486F200E81
:10247000496F460E4A6F720E4B6F650E4C6F630EBE
:102480004D6F750E4E6F650E4F6F6E0E506F630E73
:10249000516F690E526F610E536F546B330E556F4F
:1024A0002E0E566F200E576F410E586F6D0E596FDE
:1024B000700E5A6F6C0E5B6F690E5C6F740E5D6F01
:1024C000750E5E6F640E5F6F606B450E616F4C0E34
:1024D000626F450E636F470E646F490E656F520E53
:1024E000666F200E676F4F0E686F4E0E696F440E59
:1024F0006A6F410E6B6F6C6B530E6D6F650E6E6F76
:102500006E0E6F6F6F0E706F690E716F640E726F6B
:10251000610E736F6C0E746F756B430E766F750E74
:10252000776F610E786F640E796F720E7A6F610E3D
:102530007B6F640E7C6F610E7D6F7E6B540E7F6FC0
:10254000720E806F690E816F610E826F6E0E836FE7
:10255000670E846F750E856F6C0E866F610E876FC8
:10256000720E886F896B440E8A6F690E8B6F650ED1
:102570008C6F6E0E8D6F740E8E6F650E8F6F200ECA
:10258000906F640E916F650E926F200E936F530ED5
:10259000946F690E956F650E966F720E976F986FB8
:1025A000610E996F9A6B410E9B6F4A0E9C6F550E90
:1025B0009D6F530E9E6F540E9F6F410EA06F520E73
:1025C000A16F200EA26F460EA36F520EA46F450E90
:1025D000A56F430EA66F550EA76F450EA86F4E0E42
:1025E000A96F430EAA6F490EAB6F410EAC6FAD6B76
:1025F000AE6F4A0EAF6F550EB06F530EB16F540EE3
:10260000B26F410EB36F520EB46F200EB56F410E14
:10261000B66F4D0EB76F500EB86F4C0EB96F490EB6
:10262000BA6F540EBB6F550EBC6F440EBD6FBE6BC0
:10263000550EBF6F530EC06F410EC16F200EC26F9B
:10264000550EC36F500EC46F2F0EC56F440EC66F6C
:102650004F0EC76F570EC86F4E0EC96FCA6B420E32
:10266000CB6F410ECC6F430ECD6F4B0ECE6FCF6B49
:102670003E0ED06FD16BEB6B0001F9EC03F02050F4
:10268000FC0FD8B0A2D2040FF8EF15F02250FC0FC7
:1026900036E2040FE7EF15F0010E0101376FD20E9D
:1026A000366FEC0EF66E060EF76E000101EC0FF0C1
:1026B00026D0010E0101376FD20E366FFC0EF66E7A
:1026C000060EF76E000101EC0FF019D0010E0101AA
:1026D000376FD20E366F0C0EF66E070EF76E0001D6
:1026E00001EC0FF00CD0010E0101376FD20E366FE6
:1026F0001E0EF66E070EF76E000101EC0FF0050ED0
:102700000101EC6F020EED6F010EEF6FD20EEE6F56
:10271000010EF06FF16F00012CDC010E0101376F2B
:10272000D20E366F2E0EF66E070EF76E030EEB6F9F
:102730000001ECDC020EE96E26C0EEF125C0EDF1E1
:1027400024C0ECF123C0EBF1010E0101EF6F000199
:10275000F1DC480E0101F86F0001F1EC0EF07A0E89
:102760000101F86F0001F1EC0EF0050E0101EC6FB4
:102770000C0EED6F010EEF6FD20EEE6F010EF06FCB
:10278000F16F0001B9EC0FF0225223E1010E0101BB
:10279000376FD20E366F3A0EF66E070EF76E030ED7
:1027A000EB6F0001B3DC890EE96E2EC0EEF12DC097
:1027B000EDF12CC0ECF12BC0EBF1010E0101EF6F3C
:1027C0000001B8DC560E0101F86F0001F1EC0EF0CB
:1027D00028D0010E0101376FD20E366F440EF66E0F
:1027E000070EF76E030EEB6F000190DC890EE96EA9
:1027F0002AC0EEF129C0EDF128C0ECF127C0EBF1C1
:10280000010E0101EF6F000195DC200E0101F86F50
:102810000001F1EC0EF0560E0101F86F0001F1EC31
:102820000EF0460E0101EC6F0C0EED6F010EEF6F16
:10283000D20EEE6F010EF06FF16F0001B9EC0FF0E8
:102840000101EB6B160EEC6F7F0EED6F160EEE6F47
:10285000010EEF6F000152DD0A0E0101EC6F1C0E3C
:10286000ED6F010EEF6F380EEE6F010EF06FF16F2E
:102870000001B9EC0FF00A0E0101EC6F260EED6FAE
:10288000010EEF6F470EEE6F010EF06FF16F00015A
:10289000B9EC0FF00A0E0101EC6F300EED6F010E76
:1028A000EF6F550EEE6F010EF06FF16F0001B9EC96
:1028B0000FF021500A0DF3501C0F0101EB6FEC6B70
:1028C000ED6F010EEF6FD00EEE6F010EF06FF16F36
:1028D0000001B9EC0FF079D1190E0101EC6F020E75
:1028E000ED6F010EEF6F610EEE6F010EF06FF16F85
:1028F0000001B9EC0FF00101EB6B0C0EEC6F7F0ED9
:10290000ED6F0C0EEE6F010EEF6F0001F7DC0A0E9B
:102910000101EC6F140EED6F010EEF6F6D0EEE6F97
:10292000010EF06FF16F0001B9EC0FF00A0E01011A
:10293000EC6F1E0EED6F010EEF6F760EEE6F010E57
:10294000F06FF16F0001B9EC0FF00A0E0101EC6FAE
:10295000280EED6F010EEF6F7F0EEE6F010EF06F20
:10296000F16F0001B9EC0FF00A0E0101EC6F320EAD
:10297000ED6F010EEF6F8A0EEE6F010EF06FF16FCB
:102980000001B9EC0FF021500A0DF350140F0101B2
:10299000EB6FEC6BED6F010EEF6FD00EEE6F010E73
:1029A000F06FF16F0001B9EC0FF00FD1050E0101CE
:1029B000EC6FED6F010EEF6F9B0EEE6F010EF06F7F
:1029C000F16F0001B9EC0FF00101EB6B0F0EEC6F32
:1029D0007F0EED6F0F0EEE6F010EEF6F00018EDCBC
:1029E000010E0101376FD20E366F500EF66E070ED4
:1029F000F76E030EEB6F000186EC10F0020EE96E2D
:102A000026C0EEF125C0EDF124C0ECF123C0EBF1BE
:102A1000010E0101EF6F00019AEC10F0580EF66EF6
:102A2000070EF76E030E0101EB6F000186EC10F04C
:102A30001E0E0101EC6F140EED6F010EEF6FD20E42
:102A4000EE6F010EF06FF16F0001B9EC0FF0050EA3
:102A50000101EC6F280EED6F010EEF6FBF0EEE6FF0
:102A6000010EF06FF16F0001B9EC0FF0500E010193
:102A7000EC6F280EED6F010EEF6FCB0EEE6F010EB7
:102A8000F06FF16F0001B9EC0FF09FD00A0E010159
:102A9000EC6F050EED6F010EEF6FAE0EEE6F010ED7
:102AA000F06FF16F0001B9EC0FF00101EB6B0F0E4D
:102AB000EC6F7F0EED6F0F0EEE6F010EEF6F0001EA
:102AC0001DDC22522BE1010E0101376FD20E366F51
:102AD0005C0EF66E070EF76E050EEB6F000186ECCE
:102AE00010F0890EE96E2EC0EEF12DC0EDF12CC074
:102AF000ECF12BC0EBF1010E0101EF6F00019AEC3C
:102B000010F0200E0101F86F0001F1EC0EF0560EEE
:102B10000101F86F0001F1EC0EF02AD0010E010165
:102B2000376FD20E366F6A0EF66E070EF76E050E11
:102B3000EB6F000186EC10F0890EE96E2AC0EEF111
:102B400029C0EDF128C0ECF127C0EBF1010E010125
:102B5000EF6F00019AEC10F0200E0101F86F0001F8
:102B6000F1EC0EF0560E0101F86F0001F1EC0EF0E1
:102B70001E0E0101EC6F140EED6F010EEF6FD20E01
:102B8000EE6F010EF06FF16F0001B9EC0FF0050E62
:102B90000101EC6F280EED6F010EEF6FBF0EEE6FAF
:102BA000010EF06FF16F0001B9EC0FF0500E010152
:102BB000EC6F280EED6F010EEF6FCB0EEE6F010E76
:102BC000F06FF16F0001B9EC0FF067EF16F0E82439
:102BD000F76AF736E90FF66E2B0EF7220A00F5506A
:102BE000FA6E0800F550F96E9826B226CC26E62635
:102BF000E824F76AF7360B0FF66E2C0EF7220A0060
:102C0000F550FA6E0800F550F96E8C26D828AC29DC
:102C10008C2AF86AD09E078E206A216A226A266A68
:102C2000256A200E246E820E236E330E2A6E296EC4
:102C3000530E286E800E276E2E6A2D6A2C6A7F0E28
:102C40002B6E306A2F6A326A316A336A3468358093
:102C50000101376B366BC150C00B0F09C16E070EF7
:102C6000B46E1A6A1B6AF29CF29EF2BEFDD7969869
:102C7000C150C00B0F09C16EC290320E386F0001F7
:102C8000BCEC03F0000E936E956E010E0101386FDF
:102C9000000141EF04F0640E0101386F0001BCEC4B
:102CA00003F00101EB6B0001F9EC03F01F0E926ED3
:102CB000080E946E850ECD6E68EC07F09D80C00EF8
:102CC000F212BFEF09F035A003D015EF12F03590E6
:102CD000140E0101386F0001BCEC03F0F2D70300C1
:020000040030CA
:0E0000003FCE261E0087A1000FC00FE00F406C
:00000001FF
;PIC18F4550
;CRC=6431  CREATED="09-Jul-25 19:31"
